{
  "contractName": "Dex",
  "abi": [
    {
      "anonymous": false,
      "inputs": [
        {
          "indexed": true,
          "internalType": "address",
          "name": "previousOwner",
          "type": "address"
        },
        {
          "indexed": true,
          "internalType": "address",
          "name": "newOwner",
          "type": "address"
        }
      ],
      "name": "OwnershipTransferred",
      "type": "event"
    },
    {
      "inputs": [
        {
          "internalType": "bytes32",
          "name": "ticker",
          "type": "bytes32"
        },
        {
          "internalType": "address",
          "name": "tokenAddress",
          "type": "address"
        }
      ],
      "name": "addToken",
      "outputs": [],
      "stateMutability": "nonpayable",
      "type": "function"
    },
    {
      "inputs": [
        {
          "internalType": "address",
          "name": "",
          "type": "address"
        },
        {
          "internalType": "bytes32",
          "name": "",
          "type": "bytes32"
        }
      ],
      "name": "balances",
      "outputs": [
        {
          "internalType": "uint256",
          "name": "",
          "type": "uint256"
        }
      ],
      "stateMutability": "view",
      "type": "function",
      "constant": true
    },
    {
      "inputs": [
        {
          "internalType": "uint256",
          "name": "amount",
          "type": "uint256"
        },
        {
          "internalType": "bytes32",
          "name": "ticker",
          "type": "bytes32"
        }
      ],
      "name": "deposit",
      "outputs": [],
      "stateMutability": "nonpayable",
      "type": "function"
    },
    {
      "inputs": [],
      "name": "owner",
      "outputs": [
        {
          "internalType": "address",
          "name": "",
          "type": "address"
        }
      ],
      "stateMutability": "view",
      "type": "function",
      "constant": true
    },
    {
      "inputs": [],
      "name": "renounceOwnership",
      "outputs": [],
      "stateMutability": "nonpayable",
      "type": "function"
    },
    {
      "inputs": [
        {
          "internalType": "uint256",
          "name": "",
          "type": "uint256"
        }
      ],
      "name": "tokenList",
      "outputs": [
        {
          "internalType": "bytes32",
          "name": "",
          "type": "bytes32"
        }
      ],
      "stateMutability": "view",
      "type": "function",
      "constant": true
    },
    {
      "inputs": [
        {
          "internalType": "bytes32",
          "name": "",
          "type": "bytes32"
        }
      ],
      "name": "tokenMapping",
      "outputs": [
        {
          "internalType": "bytes32",
          "name": "ticker",
          "type": "bytes32"
        },
        {
          "internalType": "address",
          "name": "tokenAddress",
          "type": "address"
        }
      ],
      "stateMutability": "view",
      "type": "function",
      "constant": true
    },
    {
      "inputs": [
        {
          "internalType": "address",
          "name": "newOwner",
          "type": "address"
        }
      ],
      "name": "transferOwnership",
      "outputs": [],
      "stateMutability": "nonpayable",
      "type": "function"
    },
    {
      "inputs": [
        {
          "internalType": "uint256",
          "name": "amount",
          "type": "uint256"
        },
        {
          "internalType": "bytes32",
          "name": "ticker",
          "type": "bytes32"
        }
      ],
      "name": "withdraw",
      "outputs": [],
      "stateMutability": "nonpayable",
      "type": "function"
    },
    {
      "inputs": [
        {
          "internalType": "bytes32",
          "name": "ticker",
          "type": "bytes32"
        },
        {
          "internalType": "enum Dex.Side",
          "name": "side",
          "type": "uint8"
        }
      ],
      "name": "getOrderBook",
      "outputs": [
        {
          "components": [
            {
              "internalType": "uint256",
              "name": "id",
              "type": "uint256"
            },
            {
              "internalType": "address",
              "name": "trader",
              "type": "address"
            },
            {
              "internalType": "bool",
              "name": "buyOrder",
              "type": "bool"
            },
            {
              "internalType": "bytes32",
              "name": "ticker",
              "type": "bytes32"
            },
            {
              "internalType": "uint256",
              "name": "amount",
              "type": "uint256"
            },
            {
              "internalType": "uint256",
              "name": "price",
              "type": "uint256"
            }
          ],
          "internalType": "struct Dex.Order[]",
          "name": "",
          "type": "tuple[]"
        }
      ],
      "stateMutability": "view",
      "type": "function",
      "constant": true
    }
  ],
  "bytecode": "0x608060405234801561001057600080fd5b5061002d61002261003260201b60201c565b61003a60201b60201c565b6100fe565b600033905090565b60008060009054906101000a900473ffffffffffffffffffffffffffffffffffffffff169050816000806101000a81548173ffffffffffffffffffffffffffffffffffffffff021916908373ffffffffffffffffffffffffffffffffffffffff1602179055508173ffffffffffffffffffffffffffffffffffffffff168173ffffffffffffffffffffffffffffffffffffffff167f8be0079c531659141344cd1fd0a4f28419497f9722a3daafe3b4186f6b6457e060405160405180910390a35050565b6114958061010d6000396000f3fe608060405234801561001057600080fd5b506004361061009e5760003560e01c80639ead7222116100665780639ead722214610148578063a8d2021a14610178578063ba58ea6814610194578063c9630cb0146101c4578063f2fde38b146101e05761009e565b80631f14df69146100a3578063667cb4ba146100d3578063715018a6146101045780638da5cb5b1461010e5780639776aacf1461012c575b600080fd5b6100bd60048036038101906100b89190610cba565b6101fc565b6040516100ca9190610d13565b60405180910390f35b6100ed60048036038101906100e89190610d2e565b610221565b6040516100fb929190610d79565b60405180910390f35b61010c610265565b005b6101166102ed565b6040516101239190610da2565b60405180910390f35b61014660048036038101906101419190610dbd565b610316565b005b610162600480360381019061015d9190610e29565b610451565b60405161016f9190610e56565b60405180910390f35b610192600480360381019061018d9190610e71565b610475565b005b6101ae60048036038101906101a99190610ed6565b6106e8565b6040516101bb9190611088565b60405180910390f35b6101de60048036038101906101d99190610e71565b610817565b005b6101fa60048036038101906101f591906110aa565b610a31565b005b6003602052816000526040600020602052806000526040600020600091509150505481565b60016020528060005260406000206000915090508060000154908060010160009054906101000a900473ffffffffffffffffffffffffffffffffffffffff16905082565b61026d610b29565b73ffffffffffffffffffffffffffffffffffffffff1661028b6102ed565b73ffffffffffffffffffffffffffffffffffffffff16146102e1576040517f08c379a00000000000000000000000000000000000000000000000000000000081526004016102d890611134565b60405180910390fd5b6102eb6000610b31565b565b60008060009054906101000a900473ffffffffffffffffffffffffffffffffffffffff16905090565b61031e610b29565b73ffffffffffffffffffffffffffffffffffffffff1661033c6102ed565b73ffffffffffffffffffffffffffffffffffffffff1614610392576040517f08c379a000000000000000000000000000000000000000000000000000000000815260040161038990611134565b60405180910390fd5b60405180604001604052808381526020018273ffffffffffffffffffffffffffffffffffffffff16815250600160008481526020019081526020016000206000820151816000015560208201518160010160006101000a81548173ffffffffffffffffffffffffffffffffffffffff021916908373ffffffffffffffffffffffffffffffffffffffff16021790555090505060028290806001815401808255809150506001900390600052602060002001600090919091909150555050565b6002818154811061046157600080fd5b906000526020600020016000915090505481565b600073ffffffffffffffffffffffffffffffffffffffff166001600083815260200190815260200160002060010160009054906101000a900473ffffffffffffffffffffffffffffffffffffffff1673ffffffffffffffffffffffffffffffffffffffff1614156104e557600080fd5b81600360003373ffffffffffffffffffffffffffffffffffffffff1673ffffffffffffffffffffffffffffffffffffffff1681526020019081526020016000206000838152602001908152602001600020541015610578576040517f08c379a000000000000000000000000000000000000000000000000000000000815260040161056f906111a0565b60405180910390fd5b6105db82600360003373ffffffffffffffffffffffffffffffffffffffff1673ffffffffffffffffffffffffffffffffffffffff168152602001908152602001600020600084815260200190815260200160002054610bf590919063ffffffff16565b600360003373ffffffffffffffffffffffffffffffffffffffff1673ffffffffffffffffffffffffffffffffffffffff1681526020019081526020016000206000838152602001908152602001600020819055506001600082815260200190815260200160002060010160009054906101000a900473ffffffffffffffffffffffffffffffffffffffff1673ffffffffffffffffffffffffffffffffffffffff1663a9059cbb33846040518363ffffffff1660e01b81526004016106a09291906111c0565b6020604051808303816000875af11580156106bf573d6000803e3d6000fd5b505050506040513d601f19601f820116820180604052508101906106e39190611215565b505050565b606060046000848152602001908152602001600020600083600181111561071257610711611242565b5b8152602001908152602001600020805480602002602001604051908101604052809291908181526020016000905b8282101561080b57838290600052602060002090600502016040518060c0016040529081600082015481526020016001820160009054906101000a900473ffffffffffffffffffffffffffffffffffffffff1673ffffffffffffffffffffffffffffffffffffffff1673ffffffffffffffffffffffffffffffffffffffff1681526020016001820160149054906101000a900460ff16151515158152602001600282015481526020016003820154815260200160048201548152505081526020019060010190610740565b50505050905092915050565b80600073ffffffffffffffffffffffffffffffffffffffff166001600083815260200190815260200160002060010160009054906101000a900473ffffffffffffffffffffffffffffffffffffffff1673ffffffffffffffffffffffffffffffffffffffff1614156108be576040517f08c379a00000000000000000000000000000000000000000000000000000000081526004016108b5906112bd565b60405180910390fd5b6001600083815260200190815260200160002060010160009054906101000a900473ffffffffffffffffffffffffffffffffffffffff1673ffffffffffffffffffffffffffffffffffffffff166323b872dd3330866040518463ffffffff1660e01b8152600401610931939291906112dd565b6020604051808303816000875af1158015610950573d6000803e3d6000fd5b505050506040513d601f19601f820116820180604052508101906109749190611215565b506109d883600360003373ffffffffffffffffffffffffffffffffffffffff1673ffffffffffffffffffffffffffffffffffffffff168152602001908152602001600020600085815260200190815260200160002054610c0b90919063ffffffff16565b600360003373ffffffffffffffffffffffffffffffffffffffff1673ffffffffffffffffffffffffffffffffffffffff168152602001908152602001600020600084815260200190815260200160002081905550505050565b610a39610b29565b73ffffffffffffffffffffffffffffffffffffffff16610a576102ed565b73ffffffffffffffffffffffffffffffffffffffff1614610aad576040517f08c379a0000000000000000000000000000000000000000000000000000000008152600401610aa490611134565b60405180910390fd5b600073ffffffffffffffffffffffffffffffffffffffff168173ffffffffffffffffffffffffffffffffffffffff161415610b1d576040517f08c379a0000000000000000000000000000000000000000000000000000000008152600401610b1490611386565b60405180910390fd5b610b2681610b31565b50565b600033905090565b60008060009054906101000a900473ffffffffffffffffffffffffffffffffffffffff169050816000806101000a81548173ffffffffffffffffffffffffffffffffffffffff021916908373ffffffffffffffffffffffffffffffffffffffff1602179055508173ffffffffffffffffffffffffffffffffffffffff168173ffffffffffffffffffffffffffffffffffffffff167f8be0079c531659141344cd1fd0a4f28419497f9722a3daafe3b4186f6b6457e060405160405180910390a35050565b60008183610c0391906113d5565b905092915050565b60008183610c199190611409565b905092915050565b600080fd5b600073ffffffffffffffffffffffffffffffffffffffff82169050919050565b6000610c5182610c26565b9050919050565b610c6181610c46565b8114610c6c57600080fd5b50565b600081359050610c7e81610c58565b92915050565b6000819050919050565b610c9781610c84565b8114610ca257600080fd5b50565b600081359050610cb481610c8e565b92915050565b60008060408385031215610cd157610cd0610c21565b5b6000610cdf85828601610c6f565b9250506020610cf085828601610ca5565b9150509250929050565b6000819050919050565b610d0d81610cfa565b82525050565b6000602082019050610d286000830184610d04565b92915050565b600060208284031215610d4457610d43610c21565b5b6000610d5284828501610ca5565b91505092915050565b610d6481610c84565b82525050565b610d7381610c46565b82525050565b6000604082019050610d8e6000830185610d5b565b610d9b6020830184610d6a565b9392505050565b6000602082019050610db76000830184610d6a565b92915050565b60008060408385031215610dd457610dd3610c21565b5b6000610de285828601610ca5565b9250506020610df385828601610c6f565b9150509250929050565b610e0681610cfa565b8114610e1157600080fd5b50565b600081359050610e2381610dfd565b92915050565b600060208284031215610e3f57610e3e610c21565b5b6000610e4d84828501610e14565b91505092915050565b6000602082019050610e6b6000830184610d5b565b92915050565b60008060408385031215610e8857610e87610c21565b5b6000610e9685828601610e14565b9250506020610ea785828601610ca5565b9150509250929050565b60028110610ebe57600080fd5b50565b600081359050610ed081610eb1565b92915050565b60008060408385031215610eed57610eec610c21565b5b6000610efb85828601610ca5565b9250506020610f0c85828601610ec1565b9150509250929050565b600081519050919050565b600082825260208201905092915050565b6000819050602082019050919050565b610f4b81610cfa565b82525050565b610f5a81610c46565b82525050565b60008115159050919050565b610f7581610f60565b82525050565b610f8481610c84565b82525050565b60c082016000820151610fa06000850182610f42565b506020820151610fb36020850182610f51565b506040820151610fc66040850182610f6c565b506060820151610fd96060850182610f7b565b506080820151610fec6080850182610f42565b5060a0820151610fff60a0850182610f42565b50505050565b60006110118383610f8a565b60c08301905092915050565b6000602082019050919050565b600061103582610f16565b61103f8185610f21565b935061104a83610f32565b8060005b8381101561107b5781516110628882611005565b975061106d8361101d565b92505060018101905061104e565b5085935050505092915050565b600060208201905081810360008301526110a2818461102a565b905092915050565b6000602082840312156110c0576110bf610c21565b5b60006110ce84828501610c6f565b91505092915050565b600082825260208201905092915050565b7f4f776e61626c653a2063616c6c6572206973206e6f7420746865206f776e6572600082015250565b600061111e6020836110d7565b9150611129826110e8565b602082019050919050565b6000602082019050818103600083015261114d81611111565b9050919050565b7f42616c616e6365206e6f742073756666696369656e7400000000000000000000600082015250565b600061118a6016836110d7565b915061119582611154565b602082019050919050565b600060208201905081810360008301526111b98161117d565b9050919050565b60006040820190506111d56000830185610d6a565b6111e26020830184610d04565b9392505050565b6111f281610f60565b81146111fd57600080fd5b50565b60008151905061120f816111e9565b92915050565b60006020828403121561122b5761122a610c21565b5b600061123984828501611200565b91505092915050565b7f4e487b7100000000000000000000000000000000000000000000000000000000600052602160045260246000fd5b7f546f6b656e20646f6573206e6f74206578697374730000000000000000000000600082015250565b60006112a76015836110d7565b91506112b282611271565b602082019050919050565b600060208201905081810360008301526112d68161129a565b9050919050565b60006060820190506112f26000830186610d6a565b6112ff6020830185610d6a565b61130c6040830184610d04565b949350505050565b7f4f776e61626c653a206e6577206f776e657220697320746865207a65726f206160008201527f6464726573730000000000000000000000000000000000000000000000000000602082015250565b60006113706026836110d7565b915061137b82611314565b604082019050919050565b6000602082019050818103600083015261139f81611363565b9050919050565b7f4e487b7100000000000000000000000000000000000000000000000000000000600052601160045260246000fd5b60006113e082610cfa565b91506113eb83610cfa565b9250828210156113fe576113fd6113a6565b5b828203905092915050565b600061141482610cfa565b915061141f83610cfa565b9250827fffffffffffffffffffffffffffffffffffffffffffffffffffffffffffffffff03821115611454576114536113a6565b5b82820190509291505056fea264697066735822122077310ee256784d8e1e2ca57842e00dfe5920b54eb9f1124df893775a1372a22764736f6c634300080b0033",
  "immutableReferences": {},
  "source": "pragma solidity >=0.6.0 <0.8.13;\npragma experimental ABIEncoderV2;\nimport \"../contracts/wallet.sol\";\n\ncontract Dex is Wallet {\n\n    enum Side {\n        BUY,\n        SELL\n    }\n\n    struct Order {\n        uint id;\n        address trader;\n        bool buyOrder;\n        bytes32 ticker;\n        uint amount;\n        uint price;\n    }\n\n    mapping(bytes32 => mapping(uint => Order[])) orderBook;\n\n    function getOrderBook(bytes32 ticker, Side side) view public returns(Order[] memory) {\n        return orderBook[ticker][uint(side)];\n    }\n}",
  "sourcePath": "/Users/andrewelkins/DEX201/contracts/dex.sol",
  "compiler": {
    "name": "solc",
    "version": "0.8.11+commit.d7f03943.Emscripten.clang"
  },
  "schemaVersion": "3.4.7",
  "updatedAt": "2022-04-25T23:18:01.471Z",
  "networkType": "ethereum",
  "devdoc": {
    "kind": "dev",
    "methods": {
      "owner()": {
        "details": "Returns the address of the current owner."
      },
      "renounceOwnership()": {
        "details": "Leaves the contract without owner. It will not be possible to call `onlyOwner` functions anymore. Can only be called by the current owner. NOTE: Renouncing ownership will leave the contract without an owner, thereby removing any functionality that is only available to the owner."
      },
      "transferOwnership(address)": {
        "details": "Transfers ownership of the contract to a new account (`newOwner`). Can only be called by the current owner."
      }
    },
    "version": 1
  },
  "userdoc": {
    "kind": "user",
    "methods": {},
    "version": 1
  }
}