{
  "contractName": "Dex",
  "abi": [
    {
      "anonymous": false,
      "inputs": [
        {
          "indexed": true,
          "internalType": "address",
          "name": "previousOwner",
          "type": "address"
        },
        {
          "indexed": true,
          "internalType": "address",
          "name": "newOwner",
          "type": "address"
        }
      ],
      "name": "OwnershipTransferred",
      "type": "event"
    },
    {
      "inputs": [
        {
          "internalType": "bytes32",
          "name": "ticker",
          "type": "bytes32"
        },
        {
          "internalType": "address",
          "name": "tokenAddress",
          "type": "address"
        }
      ],
      "name": "addToken",
      "outputs": [],
      "stateMutability": "nonpayable",
      "type": "function"
    },
    {
      "inputs": [
        {
          "internalType": "address",
          "name": "",
          "type": "address"
        },
        {
          "internalType": "bytes32",
          "name": "",
          "type": "bytes32"
        }
      ],
      "name": "balances",
      "outputs": [
        {
          "internalType": "uint256",
          "name": "",
          "type": "uint256"
        }
      ],
      "stateMutability": "view",
      "type": "function",
      "constant": true
    },
    {
      "inputs": [
        {
          "internalType": "uint256",
          "name": "amount",
          "type": "uint256"
        },
        {
          "internalType": "bytes32",
          "name": "ticker",
          "type": "bytes32"
        }
      ],
      "name": "deposit",
      "outputs": [],
      "stateMutability": "nonpayable",
      "type": "function"
    },
    {
      "inputs": [],
      "name": "depositEth",
      "outputs": [],
      "stateMutability": "payable",
      "type": "function",
      "payable": true
    },
    {
      "inputs": [],
      "name": "nextOrderId",
      "outputs": [
        {
          "internalType": "uint256",
          "name": "",
          "type": "uint256"
        }
      ],
      "stateMutability": "view",
      "type": "function",
      "constant": true
    },
    {
      "inputs": [
        {
          "internalType": "bytes32",
          "name": "",
          "type": "bytes32"
        },
        {
          "internalType": "uint256",
          "name": "",
          "type": "uint256"
        },
        {
          "internalType": "uint256",
          "name": "",
          "type": "uint256"
        }
      ],
      "name": "orderBook",
      "outputs": [
        {
          "internalType": "uint256",
          "name": "id",
          "type": "uint256"
        },
        {
          "internalType": "address",
          "name": "trader",
          "type": "address"
        },
        {
          "internalType": "enum Dex.Side",
          "name": "side",
          "type": "uint8"
        },
        {
          "internalType": "bytes32",
          "name": "ticker",
          "type": "bytes32"
        },
        {
          "internalType": "uint256",
          "name": "amount",
          "type": "uint256"
        },
        {
          "internalType": "uint256",
          "name": "price",
          "type": "uint256"
        },
        {
          "internalType": "uint256",
          "name": "filled",
          "type": "uint256"
        }
      ],
      "stateMutability": "view",
      "type": "function",
      "constant": true
    },
    {
      "inputs": [],
      "name": "owner",
      "outputs": [
        {
          "internalType": "address",
          "name": "",
          "type": "address"
        }
      ],
      "stateMutability": "view",
      "type": "function",
      "constant": true
    },
    {
      "inputs": [],
      "name": "renounceOwnership",
      "outputs": [],
      "stateMutability": "nonpayable",
      "type": "function"
    },
    {
      "inputs": [
        {
          "internalType": "uint256",
          "name": "",
          "type": "uint256"
        }
      ],
      "name": "tokenList",
      "outputs": [
        {
          "internalType": "bytes32",
          "name": "",
          "type": "bytes32"
        }
      ],
      "stateMutability": "view",
      "type": "function",
      "constant": true
    },
    {
      "inputs": [
        {
          "internalType": "bytes32",
          "name": "",
          "type": "bytes32"
        }
      ],
      "name": "tokenMapping",
      "outputs": [
        {
          "internalType": "bytes32",
          "name": "ticker",
          "type": "bytes32"
        },
        {
          "internalType": "address",
          "name": "tokenAddress",
          "type": "address"
        }
      ],
      "stateMutability": "view",
      "type": "function",
      "constant": true
    },
    {
      "inputs": [
        {
          "internalType": "address",
          "name": "newOwner",
          "type": "address"
        }
      ],
      "name": "transferOwnership",
      "outputs": [],
      "stateMutability": "nonpayable",
      "type": "function"
    },
    {
      "inputs": [
        {
          "internalType": "uint256",
          "name": "amount",
          "type": "uint256"
        },
        {
          "internalType": "bytes32",
          "name": "ticker",
          "type": "bytes32"
        }
      ],
      "name": "withdraw",
      "outputs": [],
      "stateMutability": "nonpayable",
      "type": "function"
    },
    {
      "inputs": [
        {
          "internalType": "bytes32",
          "name": "ticker",
          "type": "bytes32"
        },
        {
          "internalType": "enum Dex.Side",
          "name": "side",
          "type": "uint8"
        }
      ],
      "name": "getOrderBook",
      "outputs": [
        {
          "components": [
            {
              "internalType": "uint256",
              "name": "id",
              "type": "uint256"
            },
            {
              "internalType": "address",
              "name": "trader",
              "type": "address"
            },
            {
              "internalType": "enum Dex.Side",
              "name": "side",
              "type": "uint8"
            },
            {
              "internalType": "bytes32",
              "name": "ticker",
              "type": "bytes32"
            },
            {
              "internalType": "uint256",
              "name": "amount",
              "type": "uint256"
            },
            {
              "internalType": "uint256",
              "name": "price",
              "type": "uint256"
            },
            {
              "internalType": "uint256",
              "name": "filled",
              "type": "uint256"
            }
          ],
          "internalType": "struct Dex.Order[]",
          "name": "",
          "type": "tuple[]"
        }
      ],
      "stateMutability": "view",
      "type": "function",
      "constant": true
    },
    {
      "inputs": [
        {
          "internalType": "enum Dex.Side",
          "name": "side",
          "type": "uint8"
        },
        {
          "internalType": "bytes32",
          "name": "ticker",
          "type": "bytes32"
        },
        {
          "internalType": "uint256",
          "name": "amount",
          "type": "uint256"
        },
        {
          "internalType": "uint256",
          "name": "price",
          "type": "uint256"
        }
      ],
      "name": "createLimitOrder",
      "outputs": [],
      "stateMutability": "nonpayable",
      "type": "function"
    }
  ],
  "bytecode": "0x608060405260006004553480156200001657600080fd5b50620000376200002b6200003d60201b60201c565b6200004560201b60201c565b62000109565b600033905090565b60008060009054906101000a900473ffffffffffffffffffffffffffffffffffffffff169050816000806101000a81548173ffffffffffffffffffffffffffffffffffffffff021916908373ffffffffffffffffffffffffffffffffffffffff1602179055508173ffffffffffffffffffffffffffffffffffffffff168173ffffffffffffffffffffffffffffffffffffffff167f8be0079c531659141344cd1fd0a4f28419497f9722a3daafe3b4186f6b6457e060405160405180910390a35050565b6124ce80620001196000396000f3fe6080604052600436106100dd5760003560e01c80638da5cb5b1161007f578063a8d2021a11610059578063a8d2021a146102a6578063ba58ea68146102cf578063c9630cb01461030c578063f2fde38b14610335576100dd565b80638da5cb5b146102155780639776aacf146102405780639ead722214610269576100dd565b8063439370b1116100bb578063439370b11461018d578063667cb4ba146101975780636f3b62f9146101d5578063715018a6146101fe576100dd565b80630bb431b6146100e25780631f14df69146101255780632a58b33014610162575b600080fd5b3480156100ee57600080fd5b5061010960048036038101906101049190611a4b565b61035e565b60405161011c9796959493929190611b74565b60405180910390f35b34801561013157600080fd5b5061014c60048036038101906101479190611c0f565b6103f7565b6040516101599190611c4f565b60405180910390f35b34801561016e57600080fd5b5061017761041c565b6040516101849190611c4f565b60405180910390f35b610195610422565b005b3480156101a357600080fd5b506101be60048036038101906101b99190611c6a565b61051b565b6040516101cc929190611c97565b60405180910390f35b3480156101e157600080fd5b506101fc60048036038101906101f79190611ce5565b61055f565b005b34801561020a57600080fd5b50610213610fa6565b005b34801561022157600080fd5b5061022a61102e565b6040516102379190611d4c565b60405180910390f35b34801561024c57600080fd5b5061026760048036038101906102629190611d67565b611057565b005b34801561027557600080fd5b50610290600480360381019061028b9190611da7565b611192565b60405161029d9190611dd4565b60405180910390f35b3480156102b257600080fd5b506102cd60048036038101906102c89190611def565b6111b6565b005b3480156102db57600080fd5b506102f660048036038101906102f19190611e2f565b611461565b6040516103039190611fe8565b60405180910390f35b34801561031857600080fd5b50610333600480360381019061032e9190611def565b6115ba565b005b34801561034157600080fd5b5061035c6004803603810190610357919061200a565b6117d4565b005b6005602052826000526040600020602052816000526040600020818154811061038657600080fd5b906000526020600020906006020160009250925050508060000154908060010160009054906101000a900473ffffffffffffffffffffffffffffffffffffffff16908060010160149054906101000a900460ff16908060020154908060030154908060040154908060050154905087565b6003602052816000526040600020602052806000526040600020600091509150505481565b60045481565b6104a534600360003373ffffffffffffffffffffffffffffffffffffffff1673ffffffffffffffffffffffffffffffffffffffff16815260200190815260200160002060007f45544800000000000000000000000000000000000000000000000000000000008152602001908152602001600020546118cc90919063ffffffff16565b600360003373ffffffffffffffffffffffffffffffffffffffff1673ffffffffffffffffffffffffffffffffffffffff16815260200190815260200160002060007f4554480000000000000000000000000000000000000000000000000000000000815260200190815260200160002081905550565b60016020528060005260406000206000915090508060000154908060010160009054906101000a900473ffffffffffffffffffffffffffffffffffffffff16905082565b6000600181111561057357610572611aee565b5b84600181111561058657610585611aee565b5b14156106205761059f81836118e290919063ffffffff16565b600360003373ffffffffffffffffffffffffffffffffffffffff1673ffffffffffffffffffffffffffffffffffffffff16815260200190815260200160002060007f4554480000000000000000000000000000000000000000000000000000000000815260200190815260200160002054101561061b57600080fd5b6106ab565b60018081111561063357610632611aee565b5b84600181111561064657610645611aee565b5b14156106aa5781600360003373ffffffffffffffffffffffffffffffffffffffff1673ffffffffffffffffffffffffffffffffffffffff16815260200190815260200160002060008581526020019081526020016000205410156106a957600080fd5b5b5b60006005600085815260200190815260200160002060008660018111156106d5576106d4611aee565b5b81526020019081526020016000209050806040518060e0016040528060045481526020013373ffffffffffffffffffffffffffffffffffffffff16815260200187600181111561072857610727611aee565b5b8152602001868152602001858152602001848152602001600081525090806001815401808255809150506001900390600052602060002090600602016000909190919091506000820151816000015560208201518160010160006101000a81548173ffffffffffffffffffffffffffffffffffffffff021916908373ffffffffffffffffffffffffffffffffffffffff16021790555060408201518160010160146101000a81548160ff021916908360018111156107e9576107e8611aee565b5b0217905550606082015181600201556080820151816003015560a0820151816004015560c08201518160050155505060008082805490501161082c57600061083e565b6001828054905061083d9190612066565b5b90506000600181111561085457610853611aee565b5b86600181111561086757610866611aee565b5b1415610be5575b6000811115610be05781818154811061088a5761088961209a565b5b906000526020600020906006020160040154826001836108aa9190612066565b815481106108bb576108ba61209a565b5b90600052602060002090600602016004015411156108d857610be0565b6000826001836108e89190612066565b815481106108f9576108f861209a565b5b90600052602060002090600602016040518060e0016040529081600082015481526020016001820160009054906101000a900473ffffffffffffffffffffffffffffffffffffffff1673ffffffffffffffffffffffffffffffffffffffff1673ffffffffffffffffffffffffffffffffffffffff1681526020016001820160149054906101000a900460ff16600181111561099757610996611aee565b5b60018111156109a9576109a8611aee565b5b815260200160028201548152602001600382015481526020016004820154815260200160058201548152505090508282815481106109ea576109e961209a565b5b906000526020600020906006020183600184610a069190612066565b81548110610a1757610a1661209a565b5b9060005260206000209060060201600082015481600001556001820160009054906101000a900473ffffffffffffffffffffffffffffffffffffffff168160010160006101000a81548173ffffffffffffffffffffffffffffffffffffffff021916908373ffffffffffffffffffffffffffffffffffffffff1602179055506001820160149054906101000a900460ff168160010160146101000a81548160ff02191690836001811115610ace57610acd611aee565b5b02179055506002820154816002015560038201548160030155600482015481600401556005820154816005015590505080838381548110610b1257610b1161209a565b5b90600052602060002090600602016000820151816000015560208201518160010160006101000a81548173ffffffffffffffffffffffffffffffffffffffff021916908373ffffffffffffffffffffffffffffffffffffffff16021790555060408201518160010160146101000a81548160ff02191690836001811115610b9c57610b9b611aee565b5b0217905550606082015181600201556080820151816003015560a0820151816004015560c082015181600501559050508180610bd7906120c9565b9250505061086e565b610f86565b600180811115610bf857610bf7611aee565b5b866001811115610c0b57610c0a611aee565b5b1415610f85575b6000811115610f8457818181548110610c2e57610c2d61209a565b5b90600052602060002090600602016004015482600183610c4e9190612066565b81548110610c5f57610c5e61209a565b5b9060005260206000209060060201600401541015610c7c57610f84565b600082600183610c8c9190612066565b81548110610c9d57610c9c61209a565b5b90600052602060002090600602016040518060e0016040529081600082015481526020016001820160009054906101000a900473ffffffffffffffffffffffffffffffffffffffff1673ffffffffffffffffffffffffffffffffffffffff1673ffffffffffffffffffffffffffffffffffffffff1681526020016001820160149054906101000a900460ff166001811115610d3b57610d3a611aee565b5b6001811115610d4d57610d4c611aee565b5b81526020016002820154815260200160038201548152602001600482015481526020016005820154815250509050828281548110610d8e57610d8d61209a565b5b906000526020600020906006020183600184610daa9190612066565b81548110610dbb57610dba61209a565b5b9060005260206000209060060201600082015481600001556001820160009054906101000a900473ffffffffffffffffffffffffffffffffffffffff168160010160006101000a81548173ffffffffffffffffffffffffffffffffffffffff021916908373ffffffffffffffffffffffffffffffffffffffff1602179055506001820160149054906101000a900460ff168160010160146101000a81548160ff02191690836001811115610e7257610e71611aee565b5b02179055506002820154816002015560038201548160030155600482015481600401556005820154816005015590505080838381548110610eb657610eb561209a565b5b90600052602060002090600602016000820151816000015560208201518160010160006101000a81548173ffffffffffffffffffffffffffffffffffffffff021916908373ffffffffffffffffffffffffffffffffffffffff16021790555060408201518160010160146101000a81548160ff02191690836001811115610f4057610f3f611aee565b5b0217905550606082015181600201556080820151816003015560a0820151816004015560c082015181600501559050508180610f7b906120c9565b92505050610c12565b5b5b60046000815480929190610f99906120f3565b9190505550505050505050565b610fae6118f8565b73ffffffffffffffffffffffffffffffffffffffff16610fcc61102e565b73ffffffffffffffffffffffffffffffffffffffff1614611022576040517f08c379a000000000000000000000000000000000000000000000000000000000815260040161101990612199565b60405180910390fd5b61102c6000611900565b565b60008060009054906101000a900473ffffffffffffffffffffffffffffffffffffffff16905090565b61105f6118f8565b73ffffffffffffffffffffffffffffffffffffffff1661107d61102e565b73ffffffffffffffffffffffffffffffffffffffff16146110d3576040517f08c379a00000000000000000000000000000000000000000000000000000000081526004016110ca90612199565b60405180910390fd5b60405180604001604052808381526020018273ffffffffffffffffffffffffffffffffffffffff16815250600160008481526020019081526020016000206000820151816000015560208201518160010160006101000a81548173ffffffffffffffffffffffffffffffffffffffff021916908373ffffffffffffffffffffffffffffffffffffffff16021790555090505060028290806001815401808255809150506001900390600052602060002001600090919091909150555050565b600281815481106111a257600080fd5b906000526020600020016000915090505481565b80600073ffffffffffffffffffffffffffffffffffffffff166001600083815260200190815260200160002060010160009054906101000a900473ffffffffffffffffffffffffffffffffffffffff1673ffffffffffffffffffffffffffffffffffffffff16141561125d576040517f08c379a000000000000000000000000000000000000000000000000000000000815260040161125490612205565b60405180910390fd5b82600360003373ffffffffffffffffffffffffffffffffffffffff1673ffffffffffffffffffffffffffffffffffffffff16815260200190815260200160002060008481526020019081526020016000205410156112f0576040517f08c379a00000000000000000000000000000000000000000000000000000000081526004016112e790612271565b60405180910390fd5b61135383600360003373ffffffffffffffffffffffffffffffffffffffff1673ffffffffffffffffffffffffffffffffffffffff1681526020019081526020016000206000858152602001908152602001600020546119c490919063ffffffff16565b600360003373ffffffffffffffffffffffffffffffffffffffff1673ffffffffffffffffffffffffffffffffffffffff1681526020019081526020016000206000848152602001908152602001600020819055506001600083815260200190815260200160002060010160009054906101000a900473ffffffffffffffffffffffffffffffffffffffff1673ffffffffffffffffffffffffffffffffffffffff1663a9059cbb33856040518363ffffffff1660e01b8152600401611418929190612291565b6020604051808303816000875af1158015611437573d6000803e3d6000fd5b505050506040513d601f19601f8201168201806040525081019061145b91906122f2565b50505050565b606060056000848152602001908152602001600020600083600181111561148b5761148a611aee565b5b8152602001908152602001600020805480602002602001604051908101604052809291908181526020016000905b828210156115ae57838290600052602060002090600602016040518060e0016040529081600082015481526020016001820160009054906101000a900473ffffffffffffffffffffffffffffffffffffffff1673ffffffffffffffffffffffffffffffffffffffff1673ffffffffffffffffffffffffffffffffffffffff1681526020016001820160149054906101000a900460ff16600181111561156157611560611aee565b5b600181111561157357611572611aee565b5b8152602001600282015481526020016003820154815260200160048201548152602001600582015481525050815260200190600101906114b9565b50505050905092915050565b80600073ffffffffffffffffffffffffffffffffffffffff166001600083815260200190815260200160002060010160009054906101000a900473ffffffffffffffffffffffffffffffffffffffff1673ffffffffffffffffffffffffffffffffffffffff161415611661576040517f08c379a000000000000000000000000000000000000000000000000000000000815260040161165890612205565b60405180910390fd5b6001600083815260200190815260200160002060010160009054906101000a900473ffffffffffffffffffffffffffffffffffffffff1673ffffffffffffffffffffffffffffffffffffffff166323b872dd3330866040518463ffffffff1660e01b81526004016116d49392919061231f565b6020604051808303816000875af11580156116f3573d6000803e3d6000fd5b505050506040513d601f19601f8201168201806040525081019061171791906122f2565b5061177b83600360003373ffffffffffffffffffffffffffffffffffffffff1673ffffffffffffffffffffffffffffffffffffffff1681526020019081526020016000206000858152602001908152602001600020546118cc90919063ffffffff16565b600360003373ffffffffffffffffffffffffffffffffffffffff1673ffffffffffffffffffffffffffffffffffffffff168152602001908152602001600020600084815260200190815260200160002081905550505050565b6117dc6118f8565b73ffffffffffffffffffffffffffffffffffffffff166117fa61102e565b73ffffffffffffffffffffffffffffffffffffffff1614611850576040517f08c379a000000000000000000000000000000000000000000000000000000000815260040161184790612199565b60405180910390fd5b600073ffffffffffffffffffffffffffffffffffffffff168173ffffffffffffffffffffffffffffffffffffffff1614156118c0576040517f08c379a00000000000000000000000000000000000000000000000000000000081526004016118b7906123c8565b60405180910390fd5b6118c981611900565b50565b600081836118da91906123e8565b905092915050565b600081836118f0919061243e565b905092915050565b600033905090565b60008060009054906101000a900473ffffffffffffffffffffffffffffffffffffffff169050816000806101000a81548173ffffffffffffffffffffffffffffffffffffffff021916908373ffffffffffffffffffffffffffffffffffffffff1602179055508173ffffffffffffffffffffffffffffffffffffffff168173ffffffffffffffffffffffffffffffffffffffff167f8be0079c531659141344cd1fd0a4f28419497f9722a3daafe3b4186f6b6457e060405160405180910390a35050565b600081836119d29190612066565b905092915050565b600080fd5b6000819050919050565b6119f2816119df565b81146119fd57600080fd5b50565b600081359050611a0f816119e9565b92915050565b6000819050919050565b611a2881611a15565b8114611a3357600080fd5b50565b600081359050611a4581611a1f565b92915050565b600080600060608486031215611a6457611a636119da565b5b6000611a7286828701611a00565b9350506020611a8386828701611a36565b9250506040611a9486828701611a36565b9150509250925092565b611aa781611a15565b82525050565b600073ffffffffffffffffffffffffffffffffffffffff82169050919050565b6000611ad882611aad565b9050919050565b611ae881611acd565b82525050565b7f4e487b7100000000000000000000000000000000000000000000000000000000600052602160045260246000fd5b60028110611b2e57611b2d611aee565b5b50565b6000819050611b3f82611b1d565b919050565b6000611b4f82611b31565b9050919050565b611b5f81611b44565b82525050565b611b6e816119df565b82525050565b600060e082019050611b89600083018a611a9e565b611b966020830189611adf565b611ba36040830188611b56565b611bb06060830187611b65565b611bbd6080830186611a9e565b611bca60a0830185611a9e565b611bd760c0830184611a9e565b98975050505050505050565b611bec81611acd565b8114611bf757600080fd5b50565b600081359050611c0981611be3565b92915050565b60008060408385031215611c2657611c256119da565b5b6000611c3485828601611bfa565b9250506020611c4585828601611a00565b9150509250929050565b6000602082019050611c646000830184611a9e565b92915050565b600060208284031215611c8057611c7f6119da565b5b6000611c8e84828501611a00565b91505092915050565b6000604082019050611cac6000830185611b65565b611cb96020830184611adf565b9392505050565b60028110611ccd57600080fd5b50565b600081359050611cdf81611cc0565b92915050565b60008060008060808587031215611cff57611cfe6119da565b5b6000611d0d87828801611cd0565b9450506020611d1e87828801611a00565b9350506040611d2f87828801611a36565b9250506060611d4087828801611a36565b91505092959194509250565b6000602082019050611d616000830184611adf565b92915050565b60008060408385031215611d7e57611d7d6119da565b5b6000611d8c85828601611a00565b9250506020611d9d85828601611bfa565b9150509250929050565b600060208284031215611dbd57611dbc6119da565b5b6000611dcb84828501611a36565b91505092915050565b6000602082019050611de96000830184611b65565b92915050565b60008060408385031215611e0657611e056119da565b5b6000611e1485828601611a36565b9250506020611e2585828601611a00565b9150509250929050565b60008060408385031215611e4657611e456119da565b5b6000611e5485828601611a00565b9250506020611e6585828601611cd0565b9150509250929050565b600081519050919050565b600082825260208201905092915050565b6000819050602082019050919050565b611ea481611a15565b82525050565b611eb381611acd565b82525050565b611ec281611b44565b82525050565b611ed1816119df565b82525050565b60e082016000820151611eed6000850182611e9b565b506020820151611f006020850182611eaa565b506040820151611f136040850182611eb9565b506060820151611f266060850182611ec8565b506080820151611f396080850182611e9b565b5060a0820151611f4c60a0850182611e9b565b5060c0820151611f5f60c0850182611e9b565b50505050565b6000611f718383611ed7565b60e08301905092915050565b6000602082019050919050565b6000611f9582611e6f565b611f9f8185611e7a565b9350611faa83611e8b565b8060005b83811015611fdb578151611fc28882611f65565b9750611fcd83611f7d565b925050600181019050611fae565b5085935050505092915050565b600060208201905081810360008301526120028184611f8a565b905092915050565b6000602082840312156120205761201f6119da565b5b600061202e84828501611bfa565b91505092915050565b7f4e487b7100000000000000000000000000000000000000000000000000000000600052601160045260246000fd5b600061207182611a15565b915061207c83611a15565b92508282101561208f5761208e612037565b5b828203905092915050565b7f4e487b7100000000000000000000000000000000000000000000000000000000600052603260045260246000fd5b60006120d482611a15565b915060008214156120e8576120e7612037565b5b600182039050919050565b60006120fe82611a15565b91507fffffffffffffffffffffffffffffffffffffffffffffffffffffffffffffffff82141561213157612130612037565b5b600182019050919050565b600082825260208201905092915050565b7f4f776e61626c653a2063616c6c6572206973206e6f7420746865206f776e6572600082015250565b600061218360208361213c565b915061218e8261214d565b602082019050919050565b600060208201905081810360008301526121b281612176565b9050919050565b7f546f6b656e20646f6573206e6f74206578697374730000000000000000000000600082015250565b60006121ef60158361213c565b91506121fa826121b9565b602082019050919050565b6000602082019050818103600083015261221e816121e2565b9050919050565b7f42616c616e6365206e6f742073756666696369656e7400000000000000000000600082015250565b600061225b60168361213c565b915061226682612225565b602082019050919050565b6000602082019050818103600083015261228a8161224e565b9050919050565b60006040820190506122a66000830185611adf565b6122b36020830184611a9e565b9392505050565b60008115159050919050565b6122cf816122ba565b81146122da57600080fd5b50565b6000815190506122ec816122c6565b92915050565b600060208284031215612308576123076119da565b5b6000612316848285016122dd565b91505092915050565b60006060820190506123346000830186611adf565b6123416020830185611adf565b61234e6040830184611a9e565b949350505050565b7f4f776e61626c653a206e6577206f776e657220697320746865207a65726f206160008201527f6464726573730000000000000000000000000000000000000000000000000000602082015250565b60006123b260268361213c565b91506123bd82612356565b604082019050919050565b600060208201905081810360008301526123e1816123a5565b9050919050565b60006123f382611a15565b91506123fe83611a15565b9250827fffffffffffffffffffffffffffffffffffffffffffffffffffffffffffffffff0382111561243357612432612037565b5b828201905092915050565b600061244982611a15565b915061245483611a15565b9250817fffffffffffffffffffffffffffffffffffffffffffffffffffffffffffffffff048311821515161561248d5761248c612037565b5b82820290509291505056fea264697066735822122053781f0fa2e259abf49bb8ab1a8e5c67c6c73893c64803a7e130d1c65687be1464736f6c634300080b0033",
  "immutableReferences": {},
  "source": "//SPDX-License-Identifier: MIT\npragma solidity >=0.6.0 <0.8.13;\npragma experimental ABIEncoderV2;\n\nimport \"./wallet.sol\";\n\ncontract Dex is Wallet {\n\n    using SafeMath for uint256;\n\n    enum Side {\n        BUY,\n        SELL\n    }\n\n    struct Order {\n        uint id;\n        address trader;\n        Side side;\n        bytes32 ticker;\n        uint amount;\n        uint price;\n        uint filled;\n    }\n\n    uint public nextOrderId = 0; \n\n    mapping(bytes32 => mapping(uint => Order[])) public orderBook;\n\n    function getOrderBook(bytes32 ticker, Side side) view public returns(Order[] memory) {\n        return orderBook[ticker][uint(side)];\n    }\n\n    function createLimitOrder(Side side, bytes32 ticker, uint amount, uint price) public {\n        if(side == Side.BUY){\n            require(balances[msg.sender][\"ETH\"] >= amount.mul(price));\n        }\n        else if(side == Side.SELL){\n            require(balances[msg.sender][ticker] >= amount);\n        }\n\n        Order[] storage orders = orderBook[ticker][uint(side)];\n        orders.push(\n            Order(nextOrderId, msg.sender, side, ticker, amount, price, 0)\n        );\n\n        //Bubble sort\n        uint i = orders.length > 0 ? orders.length - 1 : 0;\n\n        if(side == Side.BUY){\n            while(i > 0){\n                if(orders[i - 1].price > orders[i].price) {\n                    break;\n                }\n                Order memory orderToMove = orders[i - 1];\n                orders[i - 1] = orders[i];\n                orders[i] = orderToMove;\n                i--;\n            }\n        }\n        else if(side == Side.SELL){\n            while(i > 0){\n                if(orders[i - 1].price < orders[i].price) {\n                    break;   \n                }\n                Order memory orderToMove = orders[i - 1];\n                orders[i - 1] = orders[i];\n                orders[i] = orderToMove;\n                i--;\n            }\n        }\n\n        nextOrderId++;\n    }\n\n}",
  "sourcePath": "/Users/andrewelkins/DEX201/contracts/dex.sol",
  "compiler": {
    "name": "solc",
    "version": "0.8.11+commit.d7f03943.Emscripten.clang"
  },
  "schemaVersion": "3.4.7",
  "updatedAt": "2022-05-06T16:39:55.852Z",
  "networkType": "ethereum",
  "devdoc": {
    "kind": "dev",
    "methods": {
      "owner()": {
        "details": "Returns the address of the current owner."
      },
      "renounceOwnership()": {
        "details": "Leaves the contract without owner. It will not be possible to call `onlyOwner` functions anymore. Can only be called by the current owner. NOTE: Renouncing ownership will leave the contract without an owner, thereby removing any functionality that is only available to the owner."
      },
      "transferOwnership(address)": {
        "details": "Transfers ownership of the contract to a new account (`newOwner`). Can only be called by the current owner."
      }
    },
    "version": 1
  },
  "userdoc": {
    "kind": "user",
    "methods": {},
    "version": 1
  }
}