{
  "contractName": "Wallet",
  "abi": [
    {
      "anonymous": false,
      "inputs": [
        {
          "indexed": true,
          "internalType": "address",
          "name": "previousOwner",
          "type": "address"
        },
        {
          "indexed": true,
          "internalType": "address",
          "name": "newOwner",
          "type": "address"
        }
      ],
      "name": "OwnershipTransferred",
      "type": "event"
    },
    {
      "inputs": [
        {
          "internalType": "address",
          "name": "",
          "type": "address"
        },
        {
          "internalType": "bytes32",
          "name": "",
          "type": "bytes32"
        }
      ],
      "name": "balances",
      "outputs": [
        {
          "internalType": "uint256",
          "name": "",
          "type": "uint256"
        }
      ],
      "stateMutability": "view",
      "type": "function"
    },
    {
      "inputs": [],
      "name": "owner",
      "outputs": [
        {
          "internalType": "address",
          "name": "",
          "type": "address"
        }
      ],
      "stateMutability": "view",
      "type": "function"
    },
    {
      "inputs": [],
      "name": "renounceOwnership",
      "outputs": [],
      "stateMutability": "nonpayable",
      "type": "function"
    },
    {
      "inputs": [
        {
          "internalType": "uint256",
          "name": "",
          "type": "uint256"
        }
      ],
      "name": "tokenList",
      "outputs": [
        {
          "internalType": "bytes32",
          "name": "",
          "type": "bytes32"
        }
      ],
      "stateMutability": "view",
      "type": "function"
    },
    {
      "inputs": [
        {
          "internalType": "bytes32",
          "name": "",
          "type": "bytes32"
        }
      ],
      "name": "tokenMapping",
      "outputs": [
        {
          "internalType": "bytes32",
          "name": "ticker",
          "type": "bytes32"
        },
        {
          "internalType": "address",
          "name": "tokenAddress",
          "type": "address"
        }
      ],
      "stateMutability": "view",
      "type": "function"
    },
    {
      "inputs": [
        {
          "internalType": "address",
          "name": "newOwner",
          "type": "address"
        }
      ],
      "name": "transferOwnership",
      "outputs": [],
      "stateMutability": "nonpayable",
      "type": "function"
    },
    {
      "inputs": [
        {
          "internalType": "bytes32",
          "name": "ticker",
          "type": "bytes32"
        },
        {
          "internalType": "address",
          "name": "tokenAddress",
          "type": "address"
        }
      ],
      "name": "addToken",
      "outputs": [],
      "stateMutability": "nonpayable",
      "type": "function"
    },
    {
      "inputs": [
        {
          "internalType": "uint256",
          "name": "amount",
          "type": "uint256"
        },
        {
          "internalType": "bytes32",
          "name": "ticker",
          "type": "bytes32"
        }
      ],
      "name": "deposit",
      "outputs": [],
      "stateMutability": "nonpayable",
      "type": "function"
    },
    {
      "inputs": [
        {
          "internalType": "uint256",
          "name": "amount",
          "type": "uint256"
        },
        {
          "internalType": "bytes32",
          "name": "ticker",
          "type": "bytes32"
        }
      ],
      "name": "withdraw",
      "outputs": [],
      "stateMutability": "nonpayable",
      "type": "function"
    },
    {
      "inputs": [],
      "name": "depositEth",
      "outputs": [],
      "stateMutability": "payable",
      "type": "function"
    }
  ],
  "bytecode": "0x608060405234801561001057600080fd5b5061002d61002261003260201b60201c565b61003a60201b60201c565b6100fe565b600033905090565b60008060009054906101000a900473ffffffffffffffffffffffffffffffffffffffff169050816000806101000a81548173ffffffffffffffffffffffffffffffffffffffff021916908373ffffffffffffffffffffffffffffffffffffffff1602179055508173ffffffffffffffffffffffffffffffffffffffff168173ffffffffffffffffffffffffffffffffffffffff167f8be0079c531659141344cd1fd0a4f28419497f9722a3daafe3b4186f6b6457e060405160405180910390a35050565b6112bd8061010d6000396000f3fe6080604052600436106100915760003560e01c80639776aacf116100595780639776aacf1461015d5780639ead722214610186578063a8d2021a146101c3578063c9630cb0146101ec578063f2fde38b1461021557610091565b80631f14df6914610096578063439370b1146100d3578063667cb4ba146100dd578063715018a61461011b5780638da5cb5b14610132575b600080fd5b3480156100a257600080fd5b506100bd60048036038101906100b89190610cfe565b61023e565b6040516100ca9190610d57565b60405180910390f35b6100db610263565b005b3480156100e957600080fd5b5061010460048036038101906100ff9190610d72565b61035c565b604051610112929190610dbd565b60405180910390f35b34801561012757600080fd5b506101306103a0565b005b34801561013e57600080fd5b50610147610428565b6040516101549190610de6565b60405180910390f35b34801561016957600080fd5b50610184600480360381019061017f9190610e01565b610451565b005b34801561019257600080fd5b506101ad60048036038101906101a89190610e6d565b61058c565b6040516101ba9190610e9a565b60405180910390f35b3480156101cf57600080fd5b506101ea60048036038101906101e59190610eb5565b6105b0565b005b3480156101f857600080fd5b50610213600480360381019061020e9190610eb5565b61085b565b005b34801561022157600080fd5b5061023c60048036038101906102379190610ef5565b610a75565b005b6003602052816000526040600020602052806000526040600020600091509150505481565b6102e634600360003373ffffffffffffffffffffffffffffffffffffffff1673ffffffffffffffffffffffffffffffffffffffff16815260200190815260200160002060007f4554480000000000000000000000000000000000000000000000000000000000815260200190815260200160002054610b6d90919063ffffffff16565b600360003373ffffffffffffffffffffffffffffffffffffffff1673ffffffffffffffffffffffffffffffffffffffff16815260200190815260200160002060007f4554480000000000000000000000000000000000000000000000000000000000815260200190815260200160002081905550565b60016020528060005260406000206000915090508060000154908060010160009054906101000a900473ffffffffffffffffffffffffffffffffffffffff16905082565b6103a8610b83565b73ffffffffffffffffffffffffffffffffffffffff166103c6610428565b73ffffffffffffffffffffffffffffffffffffffff161461041c576040517f08c379a000000000000000000000000000000000000000000000000000000000815260040161041390610f7f565b60405180910390fd5b6104266000610b8b565b565b60008060009054906101000a900473ffffffffffffffffffffffffffffffffffffffff16905090565b610459610b83565b73ffffffffffffffffffffffffffffffffffffffff16610477610428565b73ffffffffffffffffffffffffffffffffffffffff16146104cd576040517f08c379a00000000000000000000000000000000000000000000000000000000081526004016104c490610f7f565b60405180910390fd5b60405180604001604052808381526020018273ffffffffffffffffffffffffffffffffffffffff16815250600160008481526020019081526020016000206000820151816000015560208201518160010160006101000a81548173ffffffffffffffffffffffffffffffffffffffff021916908373ffffffffffffffffffffffffffffffffffffffff16021790555090505060028290806001815401808255809150506001900390600052602060002001600090919091909150555050565b6002818154811061059c57600080fd5b906000526020600020016000915090505481565b80600073ffffffffffffffffffffffffffffffffffffffff166001600083815260200190815260200160002060010160009054906101000a900473ffffffffffffffffffffffffffffffffffffffff1673ffffffffffffffffffffffffffffffffffffffff161415610657576040517f08c379a000000000000000000000000000000000000000000000000000000000815260040161064e90610feb565b60405180910390fd5b82600360003373ffffffffffffffffffffffffffffffffffffffff1673ffffffffffffffffffffffffffffffffffffffff16815260200190815260200160002060008481526020019081526020016000205410156106ea576040517f08c379a00000000000000000000000000000000000000000000000000000000081526004016106e190611057565b60405180910390fd5b61074d83600360003373ffffffffffffffffffffffffffffffffffffffff1673ffffffffffffffffffffffffffffffffffffffff168152602001908152602001600020600085815260200190815260200160002054610c4f90919063ffffffff16565b600360003373ffffffffffffffffffffffffffffffffffffffff1673ffffffffffffffffffffffffffffffffffffffff1681526020019081526020016000206000848152602001908152602001600020819055506001600083815260200190815260200160002060010160009054906101000a900473ffffffffffffffffffffffffffffffffffffffff1673ffffffffffffffffffffffffffffffffffffffff1663a9059cbb33856040518363ffffffff1660e01b8152600401610812929190611077565b6020604051808303816000875af1158015610831573d6000803e3d6000fd5b505050506040513d601f19601f8201168201806040525081019061085591906110d8565b50505050565b80600073ffffffffffffffffffffffffffffffffffffffff166001600083815260200190815260200160002060010160009054906101000a900473ffffffffffffffffffffffffffffffffffffffff1673ffffffffffffffffffffffffffffffffffffffff161415610902576040517f08c379a00000000000000000000000000000000000000000000000000000000081526004016108f990610feb565b60405180910390fd5b6001600083815260200190815260200160002060010160009054906101000a900473ffffffffffffffffffffffffffffffffffffffff1673ffffffffffffffffffffffffffffffffffffffff166323b872dd3330866040518463ffffffff1660e01b815260040161097593929190611105565b6020604051808303816000875af1158015610994573d6000803e3d6000fd5b505050506040513d601f19601f820116820180604052508101906109b891906110d8565b50610a1c83600360003373ffffffffffffffffffffffffffffffffffffffff1673ffffffffffffffffffffffffffffffffffffffff168152602001908152602001600020600085815260200190815260200160002054610b6d90919063ffffffff16565b600360003373ffffffffffffffffffffffffffffffffffffffff1673ffffffffffffffffffffffffffffffffffffffff168152602001908152602001600020600084815260200190815260200160002081905550505050565b610a7d610b83565b73ffffffffffffffffffffffffffffffffffffffff16610a9b610428565b73ffffffffffffffffffffffffffffffffffffffff1614610af1576040517f08c379a0000000000000000000000000000000000000000000000000000000008152600401610ae890610f7f565b60405180910390fd5b600073ffffffffffffffffffffffffffffffffffffffff168173ffffffffffffffffffffffffffffffffffffffff161415610b61576040517f08c379a0000000000000000000000000000000000000000000000000000000008152600401610b58906111ae565b60405180910390fd5b610b6a81610b8b565b50565b60008183610b7b91906111fd565b905092915050565b600033905090565b60008060009054906101000a900473ffffffffffffffffffffffffffffffffffffffff169050816000806101000a81548173ffffffffffffffffffffffffffffffffffffffff021916908373ffffffffffffffffffffffffffffffffffffffff1602179055508173ffffffffffffffffffffffffffffffffffffffff168173ffffffffffffffffffffffffffffffffffffffff167f8be0079c531659141344cd1fd0a4f28419497f9722a3daafe3b4186f6b6457e060405160405180910390a35050565b60008183610c5d9190611253565b905092915050565b600080fd5b600073ffffffffffffffffffffffffffffffffffffffff82169050919050565b6000610c9582610c6a565b9050919050565b610ca581610c8a565b8114610cb057600080fd5b50565b600081359050610cc281610c9c565b92915050565b6000819050919050565b610cdb81610cc8565b8114610ce657600080fd5b50565b600081359050610cf881610cd2565b92915050565b60008060408385031215610d1557610d14610c65565b5b6000610d2385828601610cb3565b9250506020610d3485828601610ce9565b9150509250929050565b6000819050919050565b610d5181610d3e565b82525050565b6000602082019050610d6c6000830184610d48565b92915050565b600060208284031215610d8857610d87610c65565b5b6000610d9684828501610ce9565b91505092915050565b610da881610cc8565b82525050565b610db781610c8a565b82525050565b6000604082019050610dd26000830185610d9f565b610ddf6020830184610dae565b9392505050565b6000602082019050610dfb6000830184610dae565b92915050565b60008060408385031215610e1857610e17610c65565b5b6000610e2685828601610ce9565b9250506020610e3785828601610cb3565b9150509250929050565b610e4a81610d3e565b8114610e5557600080fd5b50565b600081359050610e6781610e41565b92915050565b600060208284031215610e8357610e82610c65565b5b6000610e9184828501610e58565b91505092915050565b6000602082019050610eaf6000830184610d9f565b92915050565b60008060408385031215610ecc57610ecb610c65565b5b6000610eda85828601610e58565b9250506020610eeb85828601610ce9565b9150509250929050565b600060208284031215610f0b57610f0a610c65565b5b6000610f1984828501610cb3565b91505092915050565b600082825260208201905092915050565b7f4f776e61626c653a2063616c6c6572206973206e6f7420746865206f776e6572600082015250565b6000610f69602083610f22565b9150610f7482610f33565b602082019050919050565b60006020820190508181036000830152610f9881610f5c565b9050919050565b7f546f6b656e20646f6573206e6f74206578697374730000000000000000000000600082015250565b6000610fd5601583610f22565b9150610fe082610f9f565b602082019050919050565b6000602082019050818103600083015261100481610fc8565b9050919050565b7f42616c616e6365206e6f742073756666696369656e7400000000000000000000600082015250565b6000611041601683610f22565b915061104c8261100b565b602082019050919050565b6000602082019050818103600083015261107081611034565b9050919050565b600060408201905061108c6000830185610dae565b6110996020830184610d48565b9392505050565b60008115159050919050565b6110b5816110a0565b81146110c057600080fd5b50565b6000815190506110d2816110ac565b92915050565b6000602082840312156110ee576110ed610c65565b5b60006110fc848285016110c3565b91505092915050565b600060608201905061111a6000830186610dae565b6111276020830185610dae565b6111346040830184610d48565b949350505050565b7f4f776e61626c653a206e6577206f776e657220697320746865207a65726f206160008201527f6464726573730000000000000000000000000000000000000000000000000000602082015250565b6000611198602683610f22565b91506111a38261113c565b604082019050919050565b600060208201905081810360008301526111c78161118b565b9050919050565b7f4e487b7100000000000000000000000000000000000000000000000000000000600052601160045260246000fd5b600061120882610d3e565b915061121383610d3e565b9250827fffffffffffffffffffffffffffffffffffffffffffffffffffffffffffffffff03821115611248576112476111ce565b5b828201905092915050565b600061125e82610d3e565b915061126983610d3e565b92508282101561127c5761127b6111ce565b5b82820390509291505056fea264697066735822122048762d7fbfbf36fc8eb35bde34bc79985a57005d9313b427a131da173b3cc54164736f6c634300080b0033",
  "immutableReferences": {},
  "source": "//SPDX-License-Identifier: MIT\npragma solidity >=0.6.0 <0.8.13;\n\nimport \"../node_modules/@openzeppelin/contracts/token/ERC20/IERC20.sol\";\nimport \"../node_modules/@openzeppelin/contracts/utils/math/SafeMath.sol\";\nimport \"../node_modules/@openzeppelin/contracts/access/Ownable.sol\";\n\ncontract Wallet is Ownable {\n    using SafeMath for uint256;\n\n    struct Token {\n        bytes32 ticker;\n        address tokenAddress;\n    }\n    mapping(bytes32 => Token) public tokenMapping;\n    bytes32[] public tokenList;\n\n    mapping(address => mapping(bytes32 => uint256)) public balances;\n\n    modifier tokenExist(bytes32 ticker) {\n        require(tokenMapping[ticker].tokenAddress != address(0), \"Token does not exists\");\n        _;\n    }\n\n    function addToken(bytes32 ticker, address tokenAddress) onlyOwner external {\n        tokenMapping[ticker] = Token(ticker, tokenAddress);\n        tokenList.push(ticker);\n    }\n\n    function deposit(uint amount, bytes32 ticker) tokenExist(ticker) external {\n        IERC20(tokenMapping[ticker].tokenAddress).transferFrom(msg.sender, address(this), amount);\n        balances[msg.sender][ticker] = balances[msg.sender][ticker].add(amount);\n    }\n\n    function withdraw(uint amount, bytes32 ticker) tokenExist(ticker) external {\n        require(balances[msg.sender][ticker] >= amount, \"Balance not sufficient\");\n        balances[msg.sender][ticker] = balances[msg.sender][ticker].sub(amount);\n        IERC20(tokenMapping[ticker].tokenAddress).transfer(msg.sender, amount);\n    }    \n\n    function depositEth() payable external {\n        balances[msg.sender][bytes32(\"ETH\")] = balances[msg.sender][bytes32(\"ETH\")].add(msg.value);\n    }\n\n}",
  "sourcePath": "/Users/andrewelkins/DEX201/contracts/wallet.sol",
  "compiler": {
    "name": "solc",
    "version": "0.8.11+commit.d7f03943.Emscripten.clang"
  },
  "schemaVersion": "3.4.7",
  "updatedAt": "2022-05-06T16:37:18.545Z",
  "devdoc": {
    "kind": "dev",
    "methods": {
      "owner()": {
        "details": "Returns the address of the current owner."
      },
      "renounceOwnership()": {
        "details": "Leaves the contract without owner. It will not be possible to call `onlyOwner` functions anymore. Can only be called by the current owner. NOTE: Renouncing ownership will leave the contract without an owner, thereby removing any functionality that is only available to the owner."
      },
      "transferOwnership(address)": {
        "details": "Transfers ownership of the contract to a new account (`newOwner`). Can only be called by the current owner."
      }
    },
    "version": 1
  },
  "userdoc": {
    "kind": "user",
    "methods": {},
    "version": 1
  }
}