{
  "contractName": "Wallet",
  "abi": [
    {
      "anonymous": false,
      "inputs": [
        {
          "indexed": true,
          "internalType": "address",
          "name": "previousOwner",
          "type": "address"
        },
        {
          "indexed": true,
          "internalType": "address",
          "name": "newOwner",
          "type": "address"
        }
      ],
      "name": "OwnershipTransferred",
      "type": "event"
    },
    {
      "inputs": [
        {
          "internalType": "address",
          "name": "",
          "type": "address"
        },
        {
          "internalType": "bytes32",
          "name": "",
          "type": "bytes32"
        }
      ],
      "name": "balances",
      "outputs": [
        {
          "internalType": "uint256",
          "name": "",
          "type": "uint256"
        }
      ],
      "stateMutability": "view",
      "type": "function"
    },
    {
      "inputs": [],
      "name": "owner",
      "outputs": [
        {
          "internalType": "address",
          "name": "",
          "type": "address"
        }
      ],
      "stateMutability": "view",
      "type": "function"
    },
    {
      "inputs": [],
      "name": "renounceOwnership",
      "outputs": [],
      "stateMutability": "nonpayable",
      "type": "function"
    },
    {
      "inputs": [
        {
          "internalType": "uint256",
          "name": "",
          "type": "uint256"
        }
      ],
      "name": "tokenList",
      "outputs": [
        {
          "internalType": "bytes32",
          "name": "",
          "type": "bytes32"
        }
      ],
      "stateMutability": "view",
      "type": "function"
    },
    {
      "inputs": [
        {
          "internalType": "bytes32",
          "name": "",
          "type": "bytes32"
        }
      ],
      "name": "tokenMapping",
      "outputs": [
        {
          "internalType": "bytes32",
          "name": "ticker",
          "type": "bytes32"
        },
        {
          "internalType": "address",
          "name": "tokenAddress",
          "type": "address"
        }
      ],
      "stateMutability": "view",
      "type": "function"
    },
    {
      "inputs": [
        {
          "internalType": "address",
          "name": "newOwner",
          "type": "address"
        }
      ],
      "name": "transferOwnership",
      "outputs": [],
      "stateMutability": "nonpayable",
      "type": "function"
    },
    {
      "inputs": [
        {
          "internalType": "bytes32",
          "name": "ticker",
          "type": "bytes32"
        },
        {
          "internalType": "address",
          "name": "tokenAddress",
          "type": "address"
        }
      ],
      "name": "addToken",
      "outputs": [],
      "stateMutability": "nonpayable",
      "type": "function"
    },
    {
      "inputs": [
        {
          "internalType": "uint256",
          "name": "amount",
          "type": "uint256"
        },
        {
          "internalType": "bytes32",
          "name": "ticker",
          "type": "bytes32"
        }
      ],
      "name": "deposit",
      "outputs": [],
      "stateMutability": "nonpayable",
      "type": "function"
    },
    {
      "inputs": [
        {
          "internalType": "uint256",
          "name": "amount",
          "type": "uint256"
        },
        {
          "internalType": "bytes32",
          "name": "ticker",
          "type": "bytes32"
        }
      ],
      "name": "withdraw",
      "outputs": [],
      "stateMutability": "nonpayable",
      "type": "function"
    },
    {
      "inputs": [],
      "name": "depositEth",
      "outputs": [],
      "stateMutability": "payable",
      "type": "function"
    }
  ],
  "bytecode": "0x608060405234801561001057600080fd5b5061003f61002b610044640100000000026401000000009004565b61004c640100000000026401000000009004565b610110565b600033905090565b60008060009054906101000a900473ffffffffffffffffffffffffffffffffffffffff169050816000806101000a81548173ffffffffffffffffffffffffffffffffffffffff021916908373ffffffffffffffffffffffffffffffffffffffff1602179055508173ffffffffffffffffffffffffffffffffffffffff168173ffffffffffffffffffffffffffffffffffffffff167f8be0079c531659141344cd1fd0a4f28419497f9722a3daafe3b4186f6b6457e060405160405180910390a35050565b6113128061011f6000396000f3fe6080604052600436106100ae576000357c0100000000000000000000000000000000000000000000000000000000900480639776aacf116100765780639776aacf1461017a5780639ead7222146101a3578063a8d2021a146101e0578063c9630cb014610209578063f2fde38b14610232576100ae565b80631f14df69146100b3578063439370b1146100f0578063667cb4ba146100fa578063715018a6146101385780638da5cb5b1461014f575b600080fd5b3480156100bf57600080fd5b506100da60048036038101906100d59190610d53565b61025b565b6040516100e79190610dac565b60405180910390f35b6100f8610280565b005b34801561010657600080fd5b50610121600480360381019061011c9190610dc7565b610379565b60405161012f929190610e12565b60405180910390f35b34801561014457600080fd5b5061014d6103bd565b005b34801561015b57600080fd5b50610164610445565b6040516101719190610e3b565b60405180910390f35b34801561018657600080fd5b506101a1600480360381019061019c9190610e56565b61046e565b005b3480156101af57600080fd5b506101ca60048036038101906101c59190610ec2565b6105a9565b6040516101d79190610eef565b60405180910390f35b3480156101ec57600080fd5b5061020760048036038101906102029190610f0a565b6105cd565b005b34801561021557600080fd5b50610230600480360381019061022b9190610f0a565b610894565b005b34801561023e57600080fd5b5061025960048036038101906102549190610f4a565b610aca565b005b6003602052816000526040600020602052806000526040600020600091509150505481565b61030334600360003373ffffffffffffffffffffffffffffffffffffffff1673ffffffffffffffffffffffffffffffffffffffff16815260200190815260200160002060007f4554480000000000000000000000000000000000000000000000000000000000815260200190815260200160002054610bc290919063ffffffff16565b600360003373ffffffffffffffffffffffffffffffffffffffff1673ffffffffffffffffffffffffffffffffffffffff16815260200190815260200160002060007f4554480000000000000000000000000000000000000000000000000000000000815260200190815260200160002081905550565b60016020528060005260406000206000915090508060000154908060010160009054906101000a900473ffffffffffffffffffffffffffffffffffffffff16905082565b6103c5610bd8565b73ffffffffffffffffffffffffffffffffffffffff166103e3610445565b73ffffffffffffffffffffffffffffffffffffffff1614610439576040517f08c379a000000000000000000000000000000000000000000000000000000000815260040161043090610fd4565b60405180910390fd5b6104436000610be0565b565b60008060009054906101000a900473ffffffffffffffffffffffffffffffffffffffff16905090565b610476610bd8565b73ffffffffffffffffffffffffffffffffffffffff16610494610445565b73ffffffffffffffffffffffffffffffffffffffff16146104ea576040517f08c379a00000000000000000000000000000000000000000000000000000000081526004016104e190610fd4565b60405180910390fd5b60405180604001604052808381526020018273ffffffffffffffffffffffffffffffffffffffff16815250600160008481526020019081526020016000206000820151816000015560208201518160010160006101000a81548173ffffffffffffffffffffffffffffffffffffffff021916908373ffffffffffffffffffffffffffffffffffffffff16021790555090505060028290806001815401808255809150506001900390600052602060002001600090919091909150555050565b600281815481106105b957600080fd5b906000526020600020016000915090505481565b80600073ffffffffffffffffffffffffffffffffffffffff166001600083815260200190815260200160002060010160009054906101000a900473ffffffffffffffffffffffffffffffffffffffff1673ffffffffffffffffffffffffffffffffffffffff161415610674576040517f08c379a000000000000000000000000000000000000000000000000000000000815260040161066b90611040565b60405180910390fd5b82600360003373ffffffffffffffffffffffffffffffffffffffff1673ffffffffffffffffffffffffffffffffffffffff1681526020019081526020016000206000848152602001908152602001600020541015610707576040517f08c379a00000000000000000000000000000000000000000000000000000000081526004016106fe906110ac565b60405180910390fd5b61076a83600360003373ffffffffffffffffffffffffffffffffffffffff1673ffffffffffffffffffffffffffffffffffffffff168152602001908152602001600020600085815260200190815260200160002054610ca490919063ffffffff16565b600360003373ffffffffffffffffffffffffffffffffffffffff1673ffffffffffffffffffffffffffffffffffffffff1681526020019081526020016000206000848152602001908152602001600020819055506001600083815260200190815260200160002060010160009054906101000a900473ffffffffffffffffffffffffffffffffffffffff1673ffffffffffffffffffffffffffffffffffffffff1663a9059cbb33856040518363ffffffff167c010000000000000000000000000000000000000000000000000000000002815260040161084b9291906110cc565b6020604051808303816000875af115801561086a573d6000803e3d6000fd5b505050506040513d601f19601f8201168201806040525081019061088e919061112d565b50505050565b80600073ffffffffffffffffffffffffffffffffffffffff166001600083815260200190815260200160002060010160009054906101000a900473ffffffffffffffffffffffffffffffffffffffff1673ffffffffffffffffffffffffffffffffffffffff16141561093b576040517f08c379a000000000000000000000000000000000000000000000000000000000815260040161093290611040565b60405180910390fd5b6001600083815260200190815260200160002060010160009054906101000a900473ffffffffffffffffffffffffffffffffffffffff1673ffffffffffffffffffffffffffffffffffffffff166323b872dd3330866040518463ffffffff167c01000000000000000000000000000000000000000000000000000000000281526004016109ca9392919061115a565b6020604051808303816000875af11580156109e9573d6000803e3d6000fd5b505050506040513d601f19601f82011682018060405250810190610a0d919061112d565b50610a7183600360003373ffffffffffffffffffffffffffffffffffffffff1673ffffffffffffffffffffffffffffffffffffffff168152602001908152602001600020600085815260200190815260200160002054610bc290919063ffffffff16565b600360003373ffffffffffffffffffffffffffffffffffffffff1673ffffffffffffffffffffffffffffffffffffffff168152602001908152602001600020600084815260200190815260200160002081905550505050565b610ad2610bd8565b73ffffffffffffffffffffffffffffffffffffffff16610af0610445565b73ffffffffffffffffffffffffffffffffffffffff1614610b46576040517f08c379a0000000000000000000000000000000000000000000000000000000008152600401610b3d90610fd4565b60405180910390fd5b600073ffffffffffffffffffffffffffffffffffffffff168173ffffffffffffffffffffffffffffffffffffffff161415610bb6576040517f08c379a0000000000000000000000000000000000000000000000000000000008152600401610bad90611203565b60405180910390fd5b610bbf81610be0565b50565b60008183610bd09190611252565b905092915050565b600033905090565b60008060009054906101000a900473ffffffffffffffffffffffffffffffffffffffff169050816000806101000a81548173ffffffffffffffffffffffffffffffffffffffff021916908373ffffffffffffffffffffffffffffffffffffffff1602179055508173ffffffffffffffffffffffffffffffffffffffff168173ffffffffffffffffffffffffffffffffffffffff167f8be0079c531659141344cd1fd0a4f28419497f9722a3daafe3b4186f6b6457e060405160405180910390a35050565b60008183610cb291906112a8565b905092915050565b600080fd5b600073ffffffffffffffffffffffffffffffffffffffff82169050919050565b6000610cea82610cbf565b9050919050565b610cfa81610cdf565b8114610d0557600080fd5b50565b600081359050610d1781610cf1565b92915050565b6000819050919050565b610d3081610d1d565b8114610d3b57600080fd5b50565b600081359050610d4d81610d27565b92915050565b60008060408385031215610d6a57610d69610cba565b5b6000610d7885828601610d08565b9250506020610d8985828601610d3e565b9150509250929050565b6000819050919050565b610da681610d93565b82525050565b6000602082019050610dc16000830184610d9d565b92915050565b600060208284031215610ddd57610ddc610cba565b5b6000610deb84828501610d3e565b91505092915050565b610dfd81610d1d565b82525050565b610e0c81610cdf565b82525050565b6000604082019050610e276000830185610df4565b610e346020830184610e03565b9392505050565b6000602082019050610e506000830184610e03565b92915050565b60008060408385031215610e6d57610e6c610cba565b5b6000610e7b85828601610d3e565b9250506020610e8c85828601610d08565b9150509250929050565b610e9f81610d93565b8114610eaa57600080fd5b50565b600081359050610ebc81610e96565b92915050565b600060208284031215610ed857610ed7610cba565b5b6000610ee684828501610ead565b91505092915050565b6000602082019050610f046000830184610df4565b92915050565b60008060408385031215610f2157610f20610cba565b5b6000610f2f85828601610ead565b9250506020610f4085828601610d3e565b9150509250929050565b600060208284031215610f6057610f5f610cba565b5b6000610f6e84828501610d08565b91505092915050565b600082825260208201905092915050565b7f4f776e61626c653a2063616c6c6572206973206e6f7420746865206f776e6572600082015250565b6000610fbe602083610f77565b9150610fc982610f88565b602082019050919050565b60006020820190508181036000830152610fed81610fb1565b9050919050565b7f546f6b656e20646f6573206e6f74206578697374730000000000000000000000600082015250565b600061102a601583610f77565b915061103582610ff4565b602082019050919050565b600060208201905081810360008301526110598161101d565b9050919050565b7f42616c616e6365206e6f742073756666696369656e7400000000000000000000600082015250565b6000611096601683610f77565b91506110a182611060565b602082019050919050565b600060208201905081810360008301526110c581611089565b9050919050565b60006040820190506110e16000830185610e03565b6110ee6020830184610d9d565b9392505050565b60008115159050919050565b61110a816110f5565b811461111557600080fd5b50565b60008151905061112781611101565b92915050565b60006020828403121561114357611142610cba565b5b600061115184828501611118565b91505092915050565b600060608201905061116f6000830186610e03565b61117c6020830185610e03565b6111896040830184610d9d565b949350505050565b7f4f776e61626c653a206e6577206f776e657220697320746865207a65726f206160008201527f6464726573730000000000000000000000000000000000000000000000000000602082015250565b60006111ed602683610f77565b91506111f882611191565b604082019050919050565b6000602082019050818103600083015261121c816111e0565b9050919050565b7f4e487b7100000000000000000000000000000000000000000000000000000000600052601160045260246000fd5b600061125d82610d93565b915061126883610d93565b9250827fffffffffffffffffffffffffffffffffffffffffffffffffffffffffffffffff0382111561129d5761129c611223565b5b828201905092915050565b60006112b382610d93565b91506112be83610d93565b9250828210156112d1576112d0611223565b5b82820390509291505056fea26469706673582212200672f1b5b8ca140a11bafabf327d737db6d94742f831799b08f62ff953aaba4664736f6c634300080c0033",
  "immutableReferences": {},
  "source": "//SPDX-License-Identifier: MIT\npragma solidity >=0.6.0 <0.8.13;\n\nimport \"../node_modules/@openzeppelin/contracts/token/ERC20/IERC20.sol\";\nimport \"../node_modules/@openzeppelin/contracts/utils/math/SafeMath.sol\";\nimport \"../node_modules/@openzeppelin/contracts/access/Ownable.sol\";\n\ncontract Wallet is Ownable {\n    using SafeMath for uint256;\n\n    struct Token {\n        bytes32 ticker;\n        address tokenAddress;\n    }\n    mapping(bytes32 => Token) public tokenMapping;\n    bytes32[] public tokenList;\n\n    mapping(address => mapping(bytes32 => uint256)) public balances;\n\n    modifier tokenExist(bytes32 ticker) {\n        require(tokenMapping[ticker].tokenAddress != address(0), \"Token does not exists\");\n        _;\n    }\n\n    function addToken(bytes32 ticker, address tokenAddress) onlyOwner external {\n        tokenMapping[ticker] = Token(ticker, tokenAddress);\n        tokenList.push(ticker);\n    }\n\n    function deposit(uint amount, bytes32 ticker) tokenExist(ticker) external {\n        IERC20(tokenMapping[ticker].tokenAddress).transferFrom(msg.sender, address(this), amount);\n        balances[msg.sender][ticker] = balances[msg.sender][ticker].add(amount);\n    }\n\n    function withdraw(uint amount, bytes32 ticker) tokenExist(ticker) external {\n        require(balances[msg.sender][ticker] >= amount, \"Balance not sufficient\");\n        balances[msg.sender][ticker] = balances[msg.sender][ticker].sub(amount);\n        IERC20(tokenMapping[ticker].tokenAddress).transfer(msg.sender, amount);\n    }    \n\n    function depositEth() payable external {\n        balances[msg.sender][bytes32(\"ETH\")] = balances[msg.sender][bytes32(\"ETH\")].add(msg.value);\n    }\n\n}",
  "sourcePath": "/Users/andrewelkins/DEX201/contracts/wallet.sol",
  "compiler": {
    "name": "solc",
    "version": "0.8.12+commit.f00d7308.Emscripten.clang"
  },
  "schemaVersion": "3.4.7",
  "updatedAt": "2022-05-06T19:47:40.125Z",
  "devdoc": {
    "kind": "dev",
    "methods": {},
    "version": 1
  },
  "userdoc": {
    "kind": "user",
    "methods": {
      "owner()": {
        "notice": "Returns the address of the current owner."
      }
    },
    "version": 1
  }
}